:100000000C942A000C9447000C9447000C94470071
:100010000C9447000C9447000C9447000C94470044
:100020000C9447000C9447000C9447000C94470034
:100030000C9447000C9407040C94A2030C94470002
:100040000C9447000C9447000C9447000C94470014
:100050000C94470011241FBECFE5D8E0DEBFCDBF12
:1000600015E0A0E6B0E0EEE9FAE002C005900D92DE
:10007000A035B107D9F725E0A0E5B5E001C01D9294
:10008000AA39B207E1F70E946E040C944D050C9456
:10009000000088BB9BBB0895CF93DF931F92CDB721
:1000A000DEB72FEF24BB69830E944900698165BBDD
:1000B000939A94988AE08A95F1F700C0949A0F90E9
:1000C000DF91CF91089514BA0E944900949A9398B1
:1000D0008AE08A95F1F700C083B3939A08958FEF71
:1000E0008ABB87BB14BA8CEB81BB8CE382BB89E1F2
:1000F00090E00E94C703789487E491E00E94630037
:100100008A31E1F058F48230B9F018F48130B9F056
:1001100018C0833089F0893189F013C08D3171F0B6
:1001200028F48B3159F08C3149F00BC08E3131F00D
:100130008C3F39F483E003C081E001C085E0809307
:10014000510580915105813069F489E491E00E9464
:100150006300833011F461E001C060E080E090E76B
:100160000E944C0080E690E00E944104809151057D
:10017000805D0E94F6038AE00C94F6030F931F93B0
:10018000CF93DF93EC0180915105853029F0809168
:1001900051058130E1F526C0209771F400E010E0B0
:1001A000C8010E9463000E94F6030F5F1F4F0115F4
:1001B00080E41807A9F7EBCF6C2F80E090E20E9453
:1001C0004C006D2F80E090E30E944C0000E010E4B2
:1001D00017FDDDCFC8010E9463000E94F6030F5F88
:1001E0001F4FF6CF89E491E00E946300833031F520
:1001F000209799F400E010E0C8010E9463000E947B
:10020000F6030F5F1F4F011580E41807A9F78091CF
:100210005105833009F05DC03DC06C2F80E090E354
:100220000E944C0000E010E417FDF1CFC8010E94CD
:1002300063000E94F6030F5F1F4FF6CF209771F403
:1002400000E010E0C8010E9463000E94F6030F5F07
:100250001F4F011580E41807A9F7D9CF6C2F6F71D4
:1002600080E090E30E944C00BE0185E076956795A2
:100270008A95E1F780E090E40E944C0000E010E4F1
:1002800017FDC5CFC8010E9463000E94F6030F5FEF
:100290001F4FF6CF209769F4C0E0D0E0CE010E9456
:1002A00063000E94F6032196C11580E4D807B1F7D8
:1002B00010C06C2F80E090E20E944C00C0E0D0E4BF
:1002C000D7FD07C0CE010E9463000E94F60321966D
:1002D000F7CFDF91CF911F910F9108950F931F9347
:1002E000CF9380915105813009F041C089E491E0BC
:1002F0000E9463006AE0833011F580E090E10E9483
:100300004C00C0E06C2F80E090E40E944C0092987A
:1003100000E010EAC8010E9463000E94F6030F5F2C
:100320001F4F011580EC1807A9F7929ACF5FC430D0
:1003300049F760E080E090E10E944C0013C080E04B
:1003400090E10E944C00929800E010EAC8010E94DF
:1003500063000E94F6030F5F1F4F011580EC180722
:10036000A9F7929A60E080E090E10E944C008091B1
:100370005105853011F56AE080E090E00E944C0064
:10038000C0E06C2F80E090E40E944C00929800E066
:1003900010EAC8010E9463000E94F6030F5F1F4F1E
:1003A000011580EC1807A9F7929ACF5FC03249F780
:1003B00060E080E090E10E944C0080915105833024
:1003C000C1F4C0E06C2F80E090E40E944C00929851
:1003D00000E010EAC8010E9463000E94F6030F5F6C
:1003E0001F4F011580EC1807A9F7929ACF5FCF3005
:1003F00049F7CF911F910F910895CF93DF9384E038
:1004000091E00E9463008E3C09F060C185E091E0BC
:100410000E9463008D3EF9F486E091E00E94630043
:100420008636C9F487E091E00E946300863621F4A5
:1004300085E690E00E94410484E091E00E94630020
:10044000C82F84E091E40E946300C81304C08BE7C6
:1004500090E00E94410488EB90E00E944104C4E3D4
:10046000D1E0CE010E94630087FD05C0CE010E944D
:1004700063000E94F6032196C33481E0D80789F710
:100480008AE00E94F60384ED90E00E94410483E438
:1004900091E00E946300803819F48BEE90E002C076
:1004A0008BE091E00E9441048EE291E00E944104C1
:1004B00086E491E00E946300833019F487E491E0C0
:1004C00002C086E691E00E94410488E891E00E9423
:1004D000410487E491E00E946300813109F479C00E
:1004E000A8F5883009F466C0C8F4823009F459C010
:1004F00048F4882309F452C0813009F089C083EAA6
:1005000091E084C0853009F44FC0863009F44FC0B3
:10051000833009F07DC08DEB91E078C08C3009F418
:100520004FC048F4893009F448C08B3009F070C0DE
:100530008EE092E06BC08F3009F445C008F046C0F1
:100540008D3009F065C08BE292E060C08D3109F416
:100550004FC090F4893109F442C040F48231E1F196
:10056000833109F055C08BE892E050C08B31D1F156
:10057000E0F58AEA92E04AC08C3F09F43FC040F4BB
:100580008E31C9F18F3109F043C082E193E03EC062
:100590008E3FB9F1C8F584E393E038C088E991E073
:1005A00035C08EEA91E032C084ED91E02FC08FED2E
:1005B00091E02CC082EF91E029C08CEF91E026C041
:1005C0008AE192E023C081E492E020C087E592E0D6
:1005D0001DC081E792E01AC08CE792E017C08FE956
:1005E00092E014C089EB92E011C08DEC92E00EC055
:1005F0008FED92E00BC086EF92E008C082E293E0BC
:1006000005C083E493E002C082E593E00E944104C8
:1006100081E693E00E94410488E491E00E94630037
:10062000843029F150F48130E1F0C0F08230E1F003
:10063000833051F587EC93E025C08235F1F038F432
:100640008530C1F0863001F582E294E01BC083352D
:10065000B9F08435C9F480E894E014C08BE693E0E7
:1006600011C08AE893E00EC089EA93E00BC086EEE1
:1006700093E008C085E094E005C081E494E002C006
:1006800080E694E00E94410480EA94E00E944104E4
:1006900089E491E00E946300823091F038F488236D
:1006A00061F08130C9F480EB94E012C0833059F0DE
:1006B000843091F48EEF94E00BC08AEA94E008C095
:1006C00089EC94E005C082EE94E002C088E195E0F8
:1006D000DF91CF910C944104DF91CF91089508955B
:1006E0000F931F93CF93929880915105853029F5F0
:1006F0006AE080E090E10E944C00C0E06C2F80E056
:1007000090E40E944C0000E010EA0E945C04892BF7
:10071000E1F30E94DB03682FC8010E944C000F5FC9
:100720001F4F011580EC180781F7CF5FC03131F7FB
:1007300060E080E090E10E944C00929ACF911F917E
:100740000F9108951F920F920FB60F9211248F935D
:100750009F93EF93FF9390915705809156059817BB
:1007600061F0E0915605EF5FEF71E0935605F0E020
:10077000E858FA4F80818CB901C05598FF91EF91EC
:100780009F918F910F900FBE0F901F901895109210
:10079000570510925605109255051092540597FF73
:1007A00003C022E02BB99F7790BD89B988E98AB947
:1007B00086E880BD0895909155058091540598175D
:1007C00091F0E0915405EF5FEF71E0935405F0E094
:1007D000E85AFA4F20818091530590E0982F88279E
:1007E000820F911D089580E091E008959091570542
:1007F0009F5F9F71209156059217E1F3E92FF0E07A
:10080000E858FA4F808390935705559A08951F92A0
:100810000F920FB60F9211242F933F934F935F9334
:100820006F937F938F939F93AF93BF93EF93FF93B8
:100830008BB19CB18871E0915505EF5FEF7120910C
:100840005405E21305C08EE40E94F60382E006C060
:10085000E0935505F0E0E85AFA4F908380935305F2
:10086000FF91EF91BF91AF919F918F917F916F9188
:100870005F914F913F912F910F900FBE0F901F905E
:100880001895CF93DF93EC018991882319F00E948A
:10089000F603FACFDF91CF910895CF93DF93FC0158
:1008A0008491EF012196882321F00E94F603FE0136
:1008B000F7CFDF91CF910895809155052091540590
:1008C00090E04F96821B91096FE170E00E94250530
:1008D0000895809154058093550508950E946F00F6
:1008E0002FEF87EA91E6215080409040E1F700C069
:1008F00000000E945C040397E4F30E945C04181655
:100900001906BCF70E94DB03809352058136A9F7D4
:100910000E94DB0380935205823679F70E94DB0345
:1009200080935205873609F461C048F48436C9F0D3
:10093000863631F1833609F7C0E0D0E009C082374E
:10094000A9F08937D1F08B36C1F60E947003D5CF5C
:10095000CE010E94BE002196C11524E0D207C1F746
:10096000CCCF0E946F000E94FD01C7CF0E946F0094
:100970008FE395E00E944104C0CF0E946E01BDCF7D
:100980000E945C040397E4F30E94DB0390939905B3
:10099000809398050E94DB03182F00E08091980552
:1009A00090919905802B912B9093990580939805B0
:1009B0000E94DB038093500580915005882399F0B5
:1009C00080919805909199059C012F5F3F4F30933E
:1009D0009905209398050E9463000E94F603809178
:1009E00050058150E7CF8AE00E94F6030E945C0424
:1009F0000397E4F30E94DB03909399058093980595
:100A00000E94DB03F82EE12C8091980590919905C6
:100A10008E299F2990939905809398050E94DB0366
:100A200080935005682F80919805909199050E94B8
:100A30004C0080919805909199050E9463000E9456
:100A4000F6038AE00E94F60358CF97FB072E16F4B0
:100A5000009407D077FD09D00E94390507FC05D026
:100A60003EF4909581959F4F0895709561957F4FC5
:100A70000895AA1BBB1B51E107C0AA1FBB1FA617E5
:100A8000B70710F0A61BB70B881F991F5A95A9F737
:0E0A900080959095BC01CD010895F894FFCF9C
:100A9E004D42433A00436172747269646765204344
:100AAE006F6E6E6563746564200A0042757420690A
:100ABE00742069732061206661756C7479202063DF
:100ACE006F6E6E656374696F6E202C706C656173EA
:100ADE00652074727920746F20696E73657274204C
:100AEE00616761696E200A005469746C65206F66D7
:100AFE00207468652067616D6520696E20415343DF
:100B0E0049493A0047616D65626F792F47616D659E
:100B1E00626F7920436F6C6F723F0009436172748C
:100B2E007269646765207769746820636F6C6F7291
:100B3E002066756E6374696F6E0A00094361727484
:100B4E0072696467652077697468206E6F20636FC1
:100B5E006C6F722066756E6374696F6E0A005375E2
:100B6E007065722047616D65626F792066756E6380
:100B7E0074696F6E733F00094361727472696467C2
:100B8E00652077697468205347422066756E6374DA
:100B9E00696F6E730A0009436172747269646765E6
:100BAE0020776974686F7574205347422066756E9E
:100BBE006374696F6E730A0043617274726964675D
:100BCE006520547970653A0009524F4D204F4E4CB6
:100BDE00590A0009524F4D2B4D4243310A0009521A
:100BEE004F4D2B4D4243312B52414D0A0009524F6E
:100BFE004D2B4D4243312B52414D2B4241545445C6
:100C0E0052590A0009524F4D2B4D4243320A0009E8
:100C1E00524F4D2B4D4243322B4241545445525963
:100C2E000A0009524F4D2B52414D0A0009524F4DA9
:100C3E002B52414D2B424154544552590A000952F0
:100C4E004F4D2B4D4D4D30310A0009524F4D2B4D0E
:100C5E004D4D30312B5352414D0A0009524F4D2B01
:100C6E004D4D4D30312B5352414D2B424154540A70
:100C7E000009524F4D2B4D4243332B54494D455293
:100C8E002B424154540A0009524F4D2B4D424333CF
:100C9E002B54494D45522B52414D2B424154540A2F
:100CAE000009524F4D2B4D4243330A0009524F4D0E
:100CBE002B4D4243332B52414D0A0009524F4D2BBF
:100CCE004D4243332B52414D2B424154540A00099D
:100CDE00524F4D2B4D4243350A0009524F4D2B4D6D
:100CEE004243352B52414D0A0009524F4D2B4D4276
:100CFE0043352B52414D2B424154540A0009524F59
:100D0E004D2B4D4243352B52554D424C450A000951
:100D1E00524F4D2B4D4243352B52554D424C452B88
:100D2E005352414D0A0009524F4D2B4D4243352B24
:100D3E0052554D424C452B5352414D2B424154542A
:100D4E000A0009506F636B65742043616D657261B3
:100D5E000A000947616D6520426F792043616D6518
:100D6E0072610A000942616E6461692054414D410D
:100D7E00350A0009487564736F6E204875432D332C
:100D8E000A0009487564736F6E204875432D310A49
:100D9E0000524F4D2073697A653A00093235364B51
:100DAE00626974203D2033324B42797465203D20B8
:100DBE00322062616E6B73200A00093531324B624C
:100DCE006974203D2036344B42797465203D2034C1
:100DDE002062616E6B73200A0009314D62697420C6
:100DEE003D203132384B42797465203D20382062E7
:100DFE00616E6B73200A0009324D626974203D20CA
:100E0E003235364B42797465203D20313620626191
:100E1E006E6B73200A0009344D626974203D2035D3
:100E2E0031324B42797465203D2033322062616E3F
:100E3E006B73200A0009384D626974203D20314DD4
:100E4E0042797465203D2036342062616E6B7320CA
:100E5E000A000931364D626974203D20324D4279C7
:100E6E007465203D203132382062616E6B73200A2A
:100E7E000009394D626974203D20312E314D427981
:100E8E007465203D2037322062616E6B73200A003C
:100E9E000931304D626974203D20312E324D427938
:100EAE007465203D2038302062616E6B73200A001D
:100EBE000931324D626974203D20312E354D427913
:100ECE007465203D2039362062616E6B73200A00F6
:100EDE0052414D2073697A653A00094E6F6E650076
:100EEE000931366B426974203D20326B42203D2021
:100EFE00312062616E6B200A000936346B426974D0
:100F0E00203D20386B42203D20312062616E6B20E7
:100F1E000A00093235366B426974203D2033326B3C
:100F2E0042203D20342062616E6B73200A0009312D
:100F3E004D426974203D3132386B42203D313620AE
:100F4E0062616E6B73200A00506C6561736520637D
:100F5E006865636B2074686520636172747269647E
:100F6E00676520636F6E6E656374696F6E0A0052FB
:100F7E0065737461727420636F6D706C6574650057
:00000001FF
